{
  "contractName": "ByteBetCrowdsale",
  "abi": [
    {
      "constant": true,
      "inputs": [],
      "name": "rate",
      "outputs": [
        {
          "name": "",
          "type": "uint256"
        }
      ],
      "payable": false,
      "stateMutability": "view",
      "type": "function"
    },
    {
      "constant": true,
      "inputs": [],
      "name": "endTime",
      "outputs": [
        {
          "name": "",
          "type": "uint256"
        }
      ],
      "payable": false,
      "stateMutability": "view",
      "type": "function"
    },
    {
      "constant": true,
      "inputs": [],
      "name": "cap",
      "outputs": [
        {
          "name": "",
          "type": "uint256"
        }
      ],
      "payable": false,
      "stateMutability": "view",
      "type": "function"
    },
    {
      "constant": true,
      "inputs": [],
      "name": "goal",
      "outputs": [
        {
          "name": "",
          "type": "uint256"
        }
      ],
      "payable": false,
      "stateMutability": "view",
      "type": "function"
    },
    {
      "constant": true,
      "inputs": [],
      "name": "weiRaised",
      "outputs": [
        {
          "name": "",
          "type": "uint256"
        }
      ],
      "payable": false,
      "stateMutability": "view",
      "type": "function"
    },
    {
      "constant": false,
      "inputs": [],
      "name": "finalize",
      "outputs": [],
      "payable": false,
      "stateMutability": "nonpayable",
      "type": "function"
    },
    {
      "constant": true,
      "inputs": [],
      "name": "wallet",
      "outputs": [
        {
          "name": "",
          "type": "address"
        }
      ],
      "payable": false,
      "stateMutability": "view",
      "type": "function"
    },
    {
      "constant": true,
      "inputs": [],
      "name": "startTime",
      "outputs": [
        {
          "name": "",
          "type": "uint256"
        }
      ],
      "payable": false,
      "stateMutability": "view",
      "type": "function"
    },
    {
      "constant": true,
      "inputs": [],
      "name": "goalReached",
      "outputs": [
        {
          "name": "",
          "type": "bool"
        }
      ],
      "payable": false,
      "stateMutability": "view",
      "type": "function"
    },
    {
      "constant": true,
      "inputs": [],
      "name": "isFinalized",
      "outputs": [
        {
          "name": "",
          "type": "bool"
        }
      ],
      "payable": false,
      "stateMutability": "view",
      "type": "function"
    },
    {
      "constant": true,
      "inputs": [],
      "name": "owner",
      "outputs": [
        {
          "name": "",
          "type": "address"
        }
      ],
      "payable": false,
      "stateMutability": "view",
      "type": "function"
    },
    {
      "constant": false,
      "inputs": [],
      "name": "claimRefund",
      "outputs": [],
      "payable": false,
      "stateMutability": "nonpayable",
      "type": "function"
    },
    {
      "constant": false,
      "inputs": [
        {
          "name": "beneficiary",
          "type": "address"
        }
      ],
      "name": "buyTokens",
      "outputs": [],
      "payable": true,
      "stateMutability": "payable",
      "type": "function"
    },
    {
      "constant": true,
      "inputs": [],
      "name": "hasEnded",
      "outputs": [
        {
          "name": "",
          "type": "bool"
        }
      ],
      "payable": false,
      "stateMutability": "view",
      "type": "function"
    },
    {
      "constant": false,
      "inputs": [
        {
          "name": "newOwner",
          "type": "address"
        }
      ],
      "name": "transferOwnership",
      "outputs": [],
      "payable": false,
      "stateMutability": "nonpayable",
      "type": "function"
    },
    {
      "constant": true,
      "inputs": [],
      "name": "vault",
      "outputs": [
        {
          "name": "",
          "type": "address"
        }
      ],
      "payable": false,
      "stateMutability": "view",
      "type": "function"
    },
    {
      "constant": true,
      "inputs": [],
      "name": "token",
      "outputs": [
        {
          "name": "",
          "type": "address"
        }
      ],
      "payable": false,
      "stateMutability": "view",
      "type": "function"
    },
    {
      "inputs": [
        {
          "name": "_startTime",
          "type": "uint256"
        },
        {
          "name": "_endTime",
          "type": "uint256"
        },
        {
          "name": "_rate",
          "type": "uint256"
        },
        {
          "name": "_goal",
          "type": "uint256"
        },
        {
          "name": "_cap",
          "type": "uint256"
        },
        {
          "name": "_wallet",
          "type": "address"
        }
      ],
      "payable": false,
      "stateMutability": "nonpayable",
      "type": "constructor"
    },
    {
      "payable": true,
      "stateMutability": "payable",
      "type": "fallback"
    },
    {
      "anonymous": false,
      "inputs": [],
      "name": "Finalized",
      "type": "event"
    },
    {
      "anonymous": false,
      "inputs": [
        {
          "indexed": true,
          "name": "previousOwner",
          "type": "address"
        },
        {
          "indexed": true,
          "name": "newOwner",
          "type": "address"
        }
      ],
      "name": "OwnershipTransferred",
      "type": "event"
    },
    {
      "anonymous": false,
      "inputs": [
        {
          "indexed": true,
          "name": "purchaser",
          "type": "address"
        },
        {
          "indexed": true,
          "name": "beneficiary",
          "type": "address"
        },
        {
          "indexed": false,
          "name": "value",
          "type": "uint256"
        },
        {
          "indexed": false,
          "name": "amount",
          "type": "uint256"
        }
      ],
      "name": "TokenPurchase",
      "type": "event"
    }
  ],
  "bytecode": "0x60606040526007805460a060020a60ff0219169055341561001f57600080fd5b60405160c0806127a2833981016040528080519190602001805191906020018051919060200180519190602001805191906020018051915083905082878787854284101561006c57600080fd5b8383101561007957600080fd5b6000821161008657600080fd5b600160a060020a038116151561009b57600080fd5b6100b064010000000061084c61023982021704565b60008054600160a060020a0319908116600160a060020a039384161782556001969096556002949094556004929092556003805490941691161790915581116100f857600080fd5b60065560078054600160a060020a03191633600160a060020a03161790556000811161012357600080fd5b600354600160a060020a031661013761025e565b600160a060020a039091168152602001604051809103906000f080151561015d57600080fd5b60098054600160a060020a031916600160a060020a03929092169190911790556008558183111561018d57600080fd5b60008054600160a060020a0316906340c10f1990839069152d02c7e14af680000090604051602001526040517c010000000000000000000000000000000000000000000000000000000063ffffffff8516028152600160a060020a0390921660048301526024820152604401602060405180830381600087803b151561021257600080fd5b6102c65a03f1151561022357600080fd5b505050604051805190505050505050505061027e565b600061024361026e565b604051809103906000f080151561025957600080fd5b905090565b60405161060c8061166883390190565b604051610b2e80611c7483390190565b6113db8061028d6000396000f3006060604052600436106100d75763ffffffff60e060020a6000350416632c4e722e81146100e25780633197cbb614610107578063355274ea1461011a578063401938831461012d5780634042b66f146101405780634bb278f314610153578063521eb2731461016657806378e97925146101955780637d3d6522146101a85780638d4e4083146101cf5780638da5cb5b146101e2578063b5545a3c146101f5578063ec8ac4d814610208578063ecb70fb71461021c578063f2fde38b1461022f578063fbfa77cf1461024e578063fc0c546a14610261575b6100e033610274565b005b34156100ed57600080fd5b6100f56103a8565b60405190815260200160405180910390f35b341561011257600080fd5b6100f56103ae565b341561012557600080fd5b6100f56103b4565b341561013857600080fd5b6100f56103ba565b341561014b57600080fd5b6100f56103c0565b341561015e57600080fd5b6100e06103c6565b341561017157600080fd5b610179610465565b604051600160a060020a03909116815260200160405180910390f35b34156101a057600080fd5b6100f5610474565b34156101b357600080fd5b6101bb61047a565b604051901515815260200160405180910390f35b34156101da57600080fd5b6101bb610485565b34156101ed57600080fd5b610179610495565b341561020057600080fd5b6100e06104a4565b6100e0600160a060020a0360043516610274565b341561022757600080fd5b6101bb61052f565b341561023a57600080fd5b6100e0600160a060020a0360043516610551565b341561025957600080fd5b6101796105ec565b341561026c57600080fd5b6101796105fb565b600080600160a060020a038316151561028c57600080fd5b61029461060a565b151561029f57600080fd5b6004543492506102b690839063ffffffff61063d16565b6005549091506102cc908363ffffffff61066816565b60055560008054600160a060020a0316906340c10f1990859084906040516020015260405160e060020a63ffffffff8516028152600160a060020a0390921660048301526024820152604401602060405180830381600087803b151561033157600080fd5b6102c65a03f1151561034257600080fd5b505050604051805190505082600160a060020a031633600160a060020a03167f623b3804fa71d67900d064613da8f94b9617215ee90799290593e1745087ad18848460405191825260208201526040908101905180910390a36103a3610677565b505050565b60045481565b60025481565b60065481565b60085481565b60055481565b60075433600160a060020a039081169116146103e157600080fd5b60075460a060020a900460ff16156103f857600080fd5b61040061052f565b151561040b57600080fd5b6104136106de565b7f6823b073d48d6e3a7d385eeb601452d680e74bb46afe3255a7d778f3a9b1768160405160405180910390a16007805474ff0000000000000000000000000000000000000000191660a060020a179055565b600354600160a060020a031681565b60015481565b600854600554101590565b60075460a060020a900460ff1681565b600754600160a060020a031681565b60075460a060020a900460ff1615156104bc57600080fd5b6104c461047a565b156104ce57600080fd5b600954600160a060020a031663fa89401a3360405160e060020a63ffffffff8416028152600160a060020a039091166004820152602401600060405180830381600087803b151561051e57600080fd5b6102c65a03f115156103a357600080fd5b600654600554600091901015610543610753565b8061054b5750805b91505090565b60075433600160a060020a0390811691161461056c57600080fd5b600160a060020a038116151561058157600080fd5b600754600160a060020a0380831691167f8be0079c531659141344cd1fd0a4f28419497f9722a3daafe3b4186f6b6457e060405160405180910390a36007805473ffffffffffffffffffffffffffffffffffffffff1916600160a060020a0392909216919091179055565b600954600160a060020a031681565b600054600160a060020a031681565b6000806006546106253460055461066890919063ffffffff16565b1115905061063161075b565b801561054b5750919050565b6000828202831580610659575082848281151561065657fe5b04145b151561066157fe5b9392505050565b60008282018381101561066157fe5b600954600160a060020a031663f340fa01343360405160e060020a63ffffffff8516028152600160a060020a0390911660048201526024016000604051808303818588803b15156106c757600080fd5b6125ee5a03f115156106d857600080fd5b50505050565b600054600754600160a060020a039182169163f2fde38b911660405160e060020a63ffffffff8416028152600160a060020a039091166004820152602401600060405180830381600087803b151561073557600080fd5b6102c65a03f1151561074657600080fd5b50505061075161078b565b565b600254421190565b6000806000600154421015801561077457506002544211155b9150503415158180156107845750805b9250505090565b61079361047a565b156107f057600954600160a060020a03166343d726d66040518163ffffffff1660e060020a028152600401600060405180830381600087803b15156107d757600080fd5b6102c65a03f115156107e857600080fd5b505050610844565b600954600160a060020a0316638c52dc416040518163ffffffff1660e060020a028152600401600060405180830381600087803b151561082f57600080fd5b6102c65a03f1151561084057600080fd5b5050505b610751610751565b6000610856610871565b604051809103906000f080151561086c57600080fd5b905090565b604051610b2e80610882833901905600606060405260038054600160a860020a03191633600160a060020a0316179055610b008061002e6000396000f3006060604052600436106100e55763ffffffff7c010000000000000000000000000000000000000000000000000000000060003504166305d2035b81146100ea57806306fdde0314610111578063095ea7b31461019b57806318160ddd146101bd57806323b872dd146101e2578063313ce5671461020a57806340c10f1914610233578063661884631461025557806370a08231146102775780637d64bcb4146102965780638da5cb5b146102a957806395d89b41146102d8578063a9059cbb146102eb578063d73dd6231461030d578063dd62ed3e1461032f578063f2fde38b14610354575b600080fd5b34156100f557600080fd5b6100fd610375565b604051901515815260200160405180910390f35b341561011c57600080fd5b610124610396565b60405160208082528190810183818151815260200191508051906020019080838360005b83811015610160578082015183820152602001610148565b50505050905090810190601f16801561018d5780820380516001836020036101000a031916815260200191505b509250505060405180910390f35b34156101a657600080fd5b6100fd600160a060020a03600435166024356103cd565b34156101c857600080fd5b6101d0610439565b60405190815260200160405180910390f35b34156101ed57600080fd5b6100fd600160a060020a036004358116906024351660443561043f565b341561021557600080fd5b61021d610569565b60405160ff909116815260200160405180910390f35b341561023e57600080fd5b6100fd600160a060020a036004351660243561056e565b341561026057600080fd5b6100fd600160a060020a036004351660243561068c565b341561028257600080fd5b6101d0600160a060020a0360043516610786565b34156102a157600080fd5b6100fd6107a1565b34156102b457600080fd5b6102bc610826565b604051600160a060020a03909116815260200160405180910390f35b34156102e357600080fd5b610124610835565b34156102f657600080fd5b6100fd600160a060020a036004351660243561086c565b341561031857600080fd5b6100fd600160a060020a0360043516602435610942565b341561033a57600080fd5b6101d0600160a060020a03600435811690602435166109e6565b341561035f57600080fd5b610373600160a060020a0360043516610a11565b005b60035474010000000000000000000000000000000000000000900460ff1681565b60408051908101604052600e81527f427974652042657420546f6b656e000000000000000000000000000000000000602082015281565b600160a060020a03338116600081815260026020908152604080832094871680845294909152808220859055909291907f8c5be1e5ebec7d5bd14f71427d1e84f3dd0314c0f7b2291e5b200ac8c7c3b9259085905190815260200160405180910390a350600192915050565b60005481565b600080600160a060020a038416151561045757600080fd5b50600160a060020a0380851660008181526002602090815260408083203390951683529381528382205492825260019052919091205461049d908463ffffffff610aac16565b600160a060020a0380871660009081526001602052604080822093909355908616815220546104d2908463ffffffff610abe16565b600160a060020a0385166000908152600160205260409020556104fb818463ffffffff610aac16565b600160a060020a03808716600081815260026020908152604080832033861684529091529081902093909355908616917fddf252ad1be2c89b69c2b068fc378daa952ba7f163c4a11628f55a4df523b3ef9086905190815260200160405180910390a3506001949350505050565b601281565b60035460009033600160a060020a0390811691161461058c57600080fd5b60035474010000000000000000000000000000000000000000900460ff16156105b457600080fd5b6000546105c7908363ffffffff610abe16565b6000908155600160a060020a0384168152600160205260409020546105f2908363ffffffff610abe16565b600160a060020a0384166000818152600160205260409081902092909255907f0f6798a560793a54c3bcfe86a93cde1e73087d944c0ea20544137d41213968859084905190815260200160405180910390a282600160a060020a031660007fddf252ad1be2c89b69c2b068fc378daa952ba7f163c4a11628f55a4df523b3ef8460405190815260200160405180910390a350600192915050565b600160a060020a033381166000908152600260209081526040808320938616835292905290812054808311156106e957600160a060020a033381166000908152600260209081526040808320938816835292905290812055610720565b6106f9818463ffffffff610aac16565b600160a060020a033381166000908152600260209081526040808320938916835292905220555b600160a060020a0333811660008181526002602090815260408083209489168084529490915290819020547f8c5be1e5ebec7d5bd14f71427d1e84f3dd0314c0f7b2291e5b200ac8c7c3b925915190815260200160405180910390a35060019392505050565b600160a060020a031660009081526001602052604090205490565b60035460009033600160a060020a039081169116146107bf57600080fd5b6003805474ff00000000000000000000000000000000000000001916740100000000000000000000000000000000000000001790557fae5184fba832cb2b1f702aca6117b8d265eaf03ad33eb133f19dde0f5920fa0860405160405180910390a150600190565b600354600160a060020a031681565b60408051908101604052600481527f4242455400000000000000000000000000000000000000000000000000000000602082015281565b6000600160a060020a038316151561088357600080fd5b600160a060020a0333166000908152600160205260409020546108ac908363ffffffff610aac16565b600160a060020a0333811660009081526001602052604080822093909355908516815220546108e1908363ffffffff610abe16565b600160a060020a0380851660008181526001602052604090819020939093559133909116907fddf252ad1be2c89b69c2b068fc378daa952ba7f163c4a11628f55a4df523b3ef9085905190815260200160405180910390a350600192915050565b600160a060020a03338116600090815260026020908152604080832093861683529290529081205461097a908363ffffffff610abe16565b600160a060020a0333811660008181526002602090815260408083209489168084529490915290819020849055919290917f8c5be1e5ebec7d5bd14f71427d1e84f3dd0314c0f7b2291e5b200ac8c7c3b92591905190815260200160405180910390a350600192915050565b600160a060020a03918216600090815260026020908152604080832093909416825291909152205490565b60035433600160a060020a03908116911614610a2c57600080fd5b600160a060020a0381161515610a4157600080fd5b600354600160a060020a0380831691167f8be0079c531659141344cd1fd0a4f28419497f9722a3daafe3b4186f6b6457e060405160405180910390a36003805473ffffffffffffffffffffffffffffffffffffffff1916600160a060020a0392909216919091179055565b600082821115610ab857fe5b50900390565b600082820183811015610acd57fe5b93925050505600a165627a7a7230582060016c148f08fa5f4adde2f79c22ee7ea31ae7c4069fac7d974e68caceb8f8500029a165627a7a7230582019b1352fee853224b6cce5d1c0a6b01864e9cb9cf77bf565c1b35773864a207e00296060604052341561000f57600080fd5b60405160208061060c8339810160405280805160008054600160a060020a03191633600160a060020a039081169190911790915590925082161515905061005557600080fd5b60028054600160a060020a031916600160a060020a03929092169190911760a060020a60ff021916905561057e8061008e6000396000f3006060604052600436106100985763ffffffff7c010000000000000000000000000000000000000000000000000000000060003504166343d726d6811461009d578063521eb273146100b25780638c52dc41146100e15780638da5cb5b146100f4578063c19d93fb14610107578063cb13cddb1461013e578063f2fde38b1461016f578063f340fa011461018e578063fa89401a146101a2575b600080fd5b34156100a857600080fd5b6100b06101c1565b005b34156100bd57600080fd5b6100c561029c565b604051600160a060020a03909116815260200160405180910390f35b34156100ec57600080fd5b6100b06102ab565b34156100ff57600080fd5b6100c561033c565b341561011257600080fd5b61011a61034b565b6040518082600281111561012a57fe5b60ff16815260200191505060405180910390f35b341561014957600080fd5b61015d600160a060020a036004351661035b565b60405190815260200160405180910390f35b341561017a57600080fd5b6100b0600160a060020a036004351661036d565b6100b0600160a060020a0360043516610408565b34156101ad57600080fd5b6100b0600160a060020a036004351661048c565b60005433600160a060020a039081169116146101dc57600080fd5b60006002805460a060020a900460ff16908111156101f657fe5b1461020057600080fd5b6002805474ff00000000000000000000000000000000000000001916740200000000000000000000000000000000000000001790557f1cdde67b72a90f19919ac732a437ac2f7a10fc128d28c2a6e525d89ce5cd9d3a60405160405180910390a1600254600160a060020a039081169030163180156108fc0290604051600060405180830381858888f19350505050151561029a57600080fd5b565b600254600160a060020a031681565b60005433600160a060020a039081169116146102c657600080fd5b60006002805460a060020a900460ff16908111156102e057fe5b146102ea57600080fd5b6002805474ff0000000000000000000000000000000000000000191660a060020a1790557f599d8e5a83cffb867d051598c4d70e805d59802d8081c1c7d6dffc5b6aca2b8960405160405180910390a1565b600054600160a060020a031681565b60025460a060020a900460ff1681565b60016020526000908152604090205481565b60005433600160a060020a0390811691161461038857600080fd5b600160a060020a038116151561039d57600080fd5b600054600160a060020a0380831691167f8be0079c531659141344cd1fd0a4f28419497f9722a3daafe3b4186f6b6457e060405160405180910390a36000805473ffffffffffffffffffffffffffffffffffffffff1916600160a060020a0392909216919091179055565b60005433600160a060020a0390811691161461042357600080fd5b60006002805460a060020a900460ff169081111561043d57fe5b1461044757600080fd5b600160a060020a038116600090815260016020526040902054610470903463ffffffff61053c16565b600160a060020a03909116600090815260016020526040902055565b600060016002805460a060020a900460ff16908111156104a857fe5b146104b257600080fd5b50600160a060020a038116600081815260016020526040808220805492905590919082156108fc0290839051600060405180830381858888f1935050505015156104fb57600080fd5b81600160a060020a03167fd7dee2702d63ad89917b6a4da9981c90c4d24f8c2bdfd64c604ecae57d8d06518260405190815260200160405180910390a25050565b60008282018381101561054b57fe5b93925050505600a165627a7a723058202918a0753e9e24caec99a883fffbf3cf70d18cc0dc617d782363fcbe0544a1fd0029606060405260038054600160a860020a03191633600160a060020a0316179055610b008061002e6000396000f3006060604052600436106100e55763ffffffff7c010000000000000000000000000000000000000000000000000000000060003504166305d2035b81146100ea57806306fdde0314610111578063095ea7b31461019b57806318160ddd146101bd57806323b872dd146101e2578063313ce5671461020a57806340c10f1914610233578063661884631461025557806370a08231146102775780637d64bcb4146102965780638da5cb5b146102a957806395d89b41146102d8578063a9059cbb146102eb578063d73dd6231461030d578063dd62ed3e1461032f578063f2fde38b14610354575b600080fd5b34156100f557600080fd5b6100fd610375565b604051901515815260200160405180910390f35b341561011c57600080fd5b610124610396565b60405160208082528190810183818151815260200191508051906020019080838360005b83811015610160578082015183820152602001610148565b50505050905090810190601f16801561018d5780820380516001836020036101000a031916815260200191505b509250505060405180910390f35b34156101a657600080fd5b6100fd600160a060020a03600435166024356103cd565b34156101c857600080fd5b6101d0610439565b60405190815260200160405180910390f35b34156101ed57600080fd5b6100fd600160a060020a036004358116906024351660443561043f565b341561021557600080fd5b61021d610569565b60405160ff909116815260200160405180910390f35b341561023e57600080fd5b6100fd600160a060020a036004351660243561056e565b341561026057600080fd5b6100fd600160a060020a036004351660243561068c565b341561028257600080fd5b6101d0600160a060020a0360043516610786565b34156102a157600080fd5b6100fd6107a1565b34156102b457600080fd5b6102bc610826565b604051600160a060020a03909116815260200160405180910390f35b34156102e357600080fd5b610124610835565b34156102f657600080fd5b6100fd600160a060020a036004351660243561086c565b341561031857600080fd5b6100fd600160a060020a0360043516602435610942565b341561033a57600080fd5b6101d0600160a060020a03600435811690602435166109e6565b341561035f57600080fd5b610373600160a060020a0360043516610a11565b005b60035474010000000000000000000000000000000000000000900460ff1681565b60408051908101604052600e81527f427974652042657420546f6b656e000000000000000000000000000000000000602082015281565b600160a060020a03338116600081815260026020908152604080832094871680845294909152808220859055909291907f8c5be1e5ebec7d5bd14f71427d1e84f3dd0314c0f7b2291e5b200ac8c7c3b9259085905190815260200160405180910390a350600192915050565b60005481565b600080600160a060020a038416151561045757600080fd5b50600160a060020a0380851660008181526002602090815260408083203390951683529381528382205492825260019052919091205461049d908463ffffffff610aac16565b600160a060020a0380871660009081526001602052604080822093909355908616815220546104d2908463ffffffff610abe16565b600160a060020a0385166000908152600160205260409020556104fb818463ffffffff610aac16565b600160a060020a03808716600081815260026020908152604080832033861684529091529081902093909355908616917fddf252ad1be2c89b69c2b068fc378daa952ba7f163c4a11628f55a4df523b3ef9086905190815260200160405180910390a3506001949350505050565b601281565b60035460009033600160a060020a0390811691161461058c57600080fd5b60035474010000000000000000000000000000000000000000900460ff16156105b457600080fd5b6000546105c7908363ffffffff610abe16565b6000908155600160a060020a0384168152600160205260409020546105f2908363ffffffff610abe16565b600160a060020a0384166000818152600160205260409081902092909255907f0f6798a560793a54c3bcfe86a93cde1e73087d944c0ea20544137d41213968859084905190815260200160405180910390a282600160a060020a031660007fddf252ad1be2c89b69c2b068fc378daa952ba7f163c4a11628f55a4df523b3ef8460405190815260200160405180910390a350600192915050565b600160a060020a033381166000908152600260209081526040808320938616835292905290812054808311156106e957600160a060020a033381166000908152600260209081526040808320938816835292905290812055610720565b6106f9818463ffffffff610aac16565b600160a060020a033381166000908152600260209081526040808320938916835292905220555b600160a060020a0333811660008181526002602090815260408083209489168084529490915290819020547f8c5be1e5ebec7d5bd14f71427d1e84f3dd0314c0f7b2291e5b200ac8c7c3b925915190815260200160405180910390a35060019392505050565b600160a060020a031660009081526001602052604090205490565b60035460009033600160a060020a039081169116146107bf57600080fd5b6003805474ff00000000000000000000000000000000000000001916740100000000000000000000000000000000000000001790557fae5184fba832cb2b1f702aca6117b8d265eaf03ad33eb133f19dde0f5920fa0860405160405180910390a150600190565b600354600160a060020a031681565b60408051908101604052600481527f4242455400000000000000000000000000000000000000000000000000000000602082015281565b6000600160a060020a038316151561088357600080fd5b600160a060020a0333166000908152600160205260409020546108ac908363ffffffff610aac16565b600160a060020a0333811660009081526001602052604080822093909355908516815220546108e1908363ffffffff610abe16565b600160a060020a0380851660008181526001602052604090819020939093559133909116907fddf252ad1be2c89b69c2b068fc378daa952ba7f163c4a11628f55a4df523b3ef9085905190815260200160405180910390a350600192915050565b600160a060020a03338116600090815260026020908152604080832093861683529290529081205461097a908363ffffffff610abe16565b600160a060020a0333811660008181526002602090815260408083209489168084529490915290819020849055919290917f8c5be1e5ebec7d5bd14f71427d1e84f3dd0314c0f7b2291e5b200ac8c7c3b92591905190815260200160405180910390a350600192915050565b600160a060020a03918216600090815260026020908152604080832093909416825291909152205490565b60035433600160a060020a03908116911614610a2c57600080fd5b600160a060020a0381161515610a4157600080fd5b600354600160a060020a0380831691167f8be0079c531659141344cd1fd0a4f28419497f9722a3daafe3b4186f6b6457e060405160405180910390a36003805473ffffffffffffffffffffffffffffffffffffffff1916600160a060020a0392909216919091179055565b600082821115610ab857fe5b50900390565b600082820183811015610acd57fe5b93925050505600a165627a7a7230582060016c148f08fa5f4adde2f79c22ee7ea31ae7c4069fac7d974e68caceb8f8500029",
  "source": "pragma solidity ^0.4.11;\n\nimport \"zeppelin-solidity/contracts/crowdsale/CappedCrowdsale.sol\";\nimport \"zeppelin-solidity/contracts/crowdsale/RefundableCrowdsale.sol\";\nimport \"zeppelin-solidity/contracts/token/MintableToken.sol\";\n\ncontract ByteBetToken is MintableToken {\n\n  string public constant name = \"Byte Bet Token\";\n  string public constant symbol = \"BBET\";\n  uint8 public constant decimals = 18;\n\n}\n\ncontract ByteBetCrowdsale is CappedCrowdsale, RefundableCrowdsale {\n\n  function ByteBetCrowdsale(uint256 _startTime, uint256 _endTime, uint256 _rate, uint256 _goal, uint256 _cap, address _wallet)\n    CappedCrowdsale(_cap)\n    FinalizableCrowdsale()\n    RefundableCrowdsale(_goal)\n    Crowdsale(_startTime, _endTime, _rate, _wallet)\n  {\n    //As goal needs to be met for a successful crowdsale\n    //the value needs to less or equal than a cap which is limit for accepted funds\n    require(_goal <= _cap);\n\n    token.mint(_wallet, 100000 ether);\n  }\n\n  function createTokenContract() internal returns (MintableToken) {\n    return new ByteBetToken();\n  }\n\n  function finalization() internal {\n    token.transferOwnership(owner);\n\n    super.finalization();\n  }\n\n}\n",
  "sourcePath": "/Users/zoltan/projects/byte.bet/crowdsale/contracts/ByteBetCrowdsale.sol",
  "compiler": {
    "name": "solc",
    "version": "0.4.18+commit.9cf6e910.Emscripten.clang"
  },
  "schemaVersion": "1.0.1",
  "updatedAt": "2017-11-15T20:27:58.749Z"
}