{
  "contractName": "ByteBetCrowdsale",
  "abi": [
    {
      "constant": true,
      "inputs": [],
      "name": "endTime",
      "outputs": [
        {
          "name": "",
          "type": "uint256"
        }
      ],
      "payable": false,
      "stateMutability": "view",
      "type": "function"
    },
    {
      "constant": true,
      "inputs": [],
      "name": "weiRaised",
      "outputs": [
        {
          "name": "",
          "type": "uint256"
        }
      ],
      "payable": false,
      "stateMutability": "view",
      "type": "function"
    },
    {
      "constant": false,
      "inputs": [],
      "name": "finalize",
      "outputs": [],
      "payable": false,
      "stateMutability": "nonpayable",
      "type": "function"
    },
    {
      "constant": true,
      "inputs": [],
      "name": "preStartTime",
      "outputs": [
        {
          "name": "",
          "type": "uint256"
        }
      ],
      "payable": false,
      "stateMutability": "view",
      "type": "function"
    },
    {
      "constant": true,
      "inputs": [],
      "name": "wallet",
      "outputs": [
        {
          "name": "",
          "type": "address"
        }
      ],
      "payable": false,
      "stateMutability": "view",
      "type": "function"
    },
    {
      "constant": true,
      "inputs": [],
      "name": "preCap",
      "outputs": [
        {
          "name": "",
          "type": "uint256"
        }
      ],
      "payable": false,
      "stateMutability": "view",
      "type": "function"
    },
    {
      "constant": true,
      "inputs": [],
      "name": "getRate",
      "outputs": [
        {
          "name": "",
          "type": "uint256"
        }
      ],
      "payable": false,
      "stateMutability": "view",
      "type": "function"
    },
    {
      "constant": true,
      "inputs": [],
      "name": "startTime",
      "outputs": [
        {
          "name": "",
          "type": "uint256"
        }
      ],
      "payable": false,
      "stateMutability": "view",
      "type": "function"
    },
    {
      "constant": true,
      "inputs": [],
      "name": "goalReached",
      "outputs": [
        {
          "name": "",
          "type": "bool"
        }
      ],
      "payable": false,
      "stateMutability": "view",
      "type": "function"
    },
    {
      "constant": true,
      "inputs": [],
      "name": "hasPreFailed",
      "outputs": [
        {
          "name": "",
          "type": "bool"
        }
      ],
      "payable": false,
      "stateMutability": "view",
      "type": "function"
    },
    {
      "constant": true,
      "inputs": [],
      "name": "isFinalized",
      "outputs": [
        {
          "name": "",
          "type": "bool"
        }
      ],
      "payable": false,
      "stateMutability": "view",
      "type": "function"
    },
    {
      "constant": true,
      "inputs": [],
      "name": "owner",
      "outputs": [
        {
          "name": "",
          "type": "address"
        }
      ],
      "payable": false,
      "stateMutability": "view",
      "type": "function"
    },
    {
      "constant": true,
      "inputs": [],
      "name": "mainGoal",
      "outputs": [
        {
          "name": "",
          "type": "uint256"
        }
      ],
      "payable": false,
      "stateMutability": "view",
      "type": "function"
    },
    {
      "constant": true,
      "inputs": [],
      "name": "mainCap",
      "outputs": [
        {
          "name": "",
          "type": "uint256"
        }
      ],
      "payable": false,
      "stateMutability": "view",
      "type": "function"
    },
    {
      "constant": true,
      "inputs": [],
      "name": "preEndTime",
      "outputs": [
        {
          "name": "",
          "type": "uint256"
        }
      ],
      "payable": false,
      "stateMutability": "view",
      "type": "function"
    },
    {
      "constant": false,
      "inputs": [],
      "name": "claimRefund",
      "outputs": [],
      "payable": false,
      "stateMutability": "nonpayable",
      "type": "function"
    },
    {
      "constant": false,
      "inputs": [
        {
          "name": "beneficiary",
          "type": "address"
        }
      ],
      "name": "buyTokens",
      "outputs": [],
      "payable": true,
      "stateMutability": "payable",
      "type": "function"
    },
    {
      "constant": true,
      "inputs": [],
      "name": "hasEnded",
      "outputs": [
        {
          "name": "",
          "type": "bool"
        }
      ],
      "payable": false,
      "stateMutability": "view",
      "type": "function"
    },
    {
      "constant": false,
      "inputs": [
        {
          "name": "newOwner",
          "type": "address"
        }
      ],
      "name": "transferOwnership",
      "outputs": [],
      "payable": false,
      "stateMutability": "nonpayable",
      "type": "function"
    },
    {
      "constant": true,
      "inputs": [],
      "name": "preGoal",
      "outputs": [
        {
          "name": "",
          "type": "uint256"
        }
      ],
      "payable": false,
      "stateMutability": "view",
      "type": "function"
    },
    {
      "constant": true,
      "inputs": [],
      "name": "vault",
      "outputs": [
        {
          "name": "",
          "type": "address"
        }
      ],
      "payable": false,
      "stateMutability": "view",
      "type": "function"
    },
    {
      "constant": true,
      "inputs": [],
      "name": "token",
      "outputs": [
        {
          "name": "",
          "type": "address"
        }
      ],
      "payable": false,
      "stateMutability": "view",
      "type": "function"
    },
    {
      "inputs": [
        {
          "name": "_preStartTime",
          "type": "uint256"
        },
        {
          "name": "_preEndTime",
          "type": "uint256"
        },
        {
          "name": "_startTime",
          "type": "uint256"
        },
        {
          "name": "_endTime",
          "type": "uint256"
        },
        {
          "name": "_wallet",
          "type": "address"
        }
      ],
      "payable": false,
      "stateMutability": "nonpayable",
      "type": "constructor"
    },
    {
      "payable": true,
      "stateMutability": "payable",
      "type": "fallback"
    },
    {
      "anonymous": false,
      "inputs": [],
      "name": "Finalized",
      "type": "event"
    },
    {
      "anonymous": false,
      "inputs": [
        {
          "indexed": true,
          "name": "purchaser",
          "type": "address"
        },
        {
          "indexed": true,
          "name": "beneficiary",
          "type": "address"
        },
        {
          "indexed": false,
          "name": "value",
          "type": "uint256"
        },
        {
          "indexed": false,
          "name": "amount",
          "type": "uint256"
        }
      ],
      "name": "TokenPurchase",
      "type": "event"
    },
    {
      "anonymous": false,
      "inputs": [
        {
          "indexed": true,
          "name": "previousOwner",
          "type": "address"
        },
        {
          "indexed": true,
          "name": "newOwner",
          "type": "address"
        }
      ],
      "name": "OwnershipTransferred",
      "type": "event"
    }
  ],
  "bytecode": "0x60606040526008805460a060020a60ff0219169055341561001f57600080fd5b60405160a080611eb5833981016040528080519190602001805191906020018051919060200180519190602001805160008054600160a060020a03191633600160a060020a03161790559150504285101561007957600080fd5b8484101561008657600080fd5b8383101561009357600080fd5b828210156100a057600080fd5b600160a060020a03811615156100b557600080fd5b6100bd610207565b604051809103906000f08015156100d357600080fd5b60018054600160a060020a0319908116600160a060020a039384161790915560028790556003869055600485905560058490556006805490911683831617908190551661011e610217565b600160a060020a039091168152602001604051809103906000f080151561014457600080fd5b60088054600160a060020a031916600160a060020a03928316179055600154600654908216916340c10f19911669152d02c7e14af68000006000604051602001526040517c010000000000000000000000000000000000000000000000000000000063ffffffff8516028152600160a060020a0390921660048301526024820152604401602060405180830381600087803b15156101e157600080fd5b6102c65a03f115156101f257600080fd5b50505060405180519050505050505050610227565b604051610b2e80610d7b83390190565b60405161060c806118a983390190565b610b45806102366000396000f30060606040526004361061010e5763ffffffff60e060020a6000350416633197cbb681146101195780634042b66f1461013e5780634bb278f3146101515780634dc4121014610164578063521eb273146101775780635e19deda146101a6578063679aefce146101b957806378e97925146101cc5780637d3d6522146101df5780637f60c217146102065780638d4e4083146102195780638da5cb5b1461022c5780639629be951461023f57806397fcf92814610252578063a12c256414610265578063b5545a3c14610278578063ec8ac4d81461028b578063ecb70fb71461029f578063f2fde38b146102b2578063f9e6393a146102d1578063fbfa77cf146102e4578063fc0c546a146102f7575b6101173361030a565b005b341561012457600080fd5b61012c610443565b60405190815260200160405180910390f35b341561014957600080fd5b61012c610449565b341561015c57600080fd5b61011761044f565b341561016f57600080fd5b61012c6104fc565b341561018257600080fd5b61018a610502565b604051600160a060020a03909116815260200160405180910390f35b34156101b157600080fd5b61012c610511565b34156101c457600080fd5b61012c61051e565b34156101d757600080fd5b61012c6105be565b34156101ea57600080fd5b6101f26105c4565b604051901515815260200160405180910390f35b341561021157600080fd5b6101f26105d7565b341561022457600080fd5b6101f2610607565b341561023757600080fd5b61018a610617565b341561024a57600080fd5b61012c610626565b341561025d57600080fd5b61012c610633565b341561027057600080fd5b61012c610641565b341561028357600080fd5b610117610647565b610117600160a060020a036004351661030a565b34156102aa57600080fd5b6101f26106d7565b34156102bd57600080fd5b610117600160a060020a03600435166106ff565b34156102dc57600080fd5b61012c61079a565b34156102ef57600080fd5b61018a6107a7565b341561030257600080fd5b61018a6107b6565b60008080600160a060020a038416151561032357600080fd5b61032b6107c5565b151561033657600080fd5b34925061034161051e565b9150610353838363ffffffff6108ae16565b600754909150610369908463ffffffff6108d916565b600755600154600160a060020a03166340c10f19858360006040516020015260405160e060020a63ffffffff8516028152600160a060020a0390921660048301526024820152604401602060405180830381600087803b15156103cb57600080fd5b6102c65a03f115156103dc57600080fd5b505050604051805190505083600160a060020a031633600160a060020a03167f623b3804fa71d67900d064613da8f94b9617215ee90799290593e1745087ad18858460405191825260208201526040908101905180910390a361043d6108e8565b50505050565b60055481565b60075481565b60005433600160a060020a0390811691161461046a57600080fd5b60085460a060020a900460ff161561048157600080fd5b6104896106d7565b8061049757506104976105d7565b15156104a257600080fd5b6104aa610949565b7f6823b073d48d6e3a7d385eeb601452d680e74bb46afe3255a7d778f3a9b1768160405160405180910390a16008805474ff0000000000000000000000000000000000000000191660a060020a179055565b60025481565b600654600160a060020a031681565b682086ac35105260000081565b6000426002541115801561053457506003544211155b15610541575060826105bb565b426004541115801561055a575060045462015180014211155b156105675750607d6105bb565b426004546201518001108015610584575060045462093a80014211155b15610591575060736105bb565b4260045462093a80011080156105a957506005544211155b156105b65750606e6105bb565b600080fd5b90565b60045481565b60075468a2a15d09519be0000090101590565b6000426003541080156105f45750680821ab0d4414980000600754105b15610601575060016105bb565b50600090565b60085460a060020a900460ff1681565b600054600160a060020a031681565b68a2a15d09519be0000081565b690a968163f0a57b40000081565b60035481565b60085460a060020a900460ff16151561065f57600080fd5b6106676105c4565b1561067157600080fd5b600854600160a060020a031663fa89401a3360405160e060020a63ffffffff8416028152600160a060020a039091166004820152602401600060405180830381600087803b15156106c157600080fd5b6102c65a03f115156106d257600080fd5b505050565b600080690a968163f0a57b400000600754101590506005544211806106f95750805b91505090565b60005433600160a060020a0390811691161461071a57600080fd5b600160a060020a038116151561072f57600080fd5b600054600160a060020a0380831691167f8be0079c531659141344cd1fd0a4f28419497f9722a3daafe3b4186f6b6457e060405160405180910390a36000805473ffffffffffffffffffffffffffffffffffffffff1916600160a060020a0392909216919091179055565b680821ab0d441498000081565b600854600160a060020a031681565b600154600160a060020a031681565b600080600080600042600254111580156107e157506003544211155b806107fb575042600454111580156107fb57506005544211155b9350346000141592506003544211158061081f5750680821ab0d4414980000600754115b915060009050426002541115801561083957506003544211155b1561086557600754682086ac3510526000009061085c903463ffffffff6108d916565b11159050610889565b600754690a968163f0a57b40000090610884903463ffffffff6108d916565b111590505b8380156108935750825b801561089c5750805b80156108a55750815b94505050505090565b60008282028315806108ca57508284828115156108c757fe5b04145b15156108d257fe5b9392505050565b6000828201838110156108d257fe5b600854600160a060020a031663f340fa01343360405160e060020a63ffffffff8516028152600160a060020a0390911660048201526024016000604051808303818588803b151561093857600080fd5b6125ee5a03f1151561043d57600080fd5b60006109536105c4565b15610ab457600854600160a060020a03166343d726d66040518163ffffffff1660e060020a028152600401600060405180830381600087803b151561099757600080fd5b6102c65a03f115156109a857600080fd5b5050600154610a2a915069152d02c7e14af680000090600160a060020a03166318160ddd6000604051602001526040518163ffffffff1660e060020a028152600401602060405180830381600087803b1515610a0357600080fd5b6102c65a03f11515610a1457600080fd5b505050604051805191905063ffffffff610b0716565b600154600654919250600160a060020a03908116916340c10f1991168360006040516020015260405160e060020a63ffffffff8516028152600160a060020a0390921660048301526024820152604401602060405180830381600087803b1515610a9357600080fd5b6102c65a03f11515610aa457600080fd5b5050506040518051905050610b04565b600854600160a060020a0316638c52dc416040518163ffffffff1660e060020a028152600401600060405180830381600087803b1515610af357600080fd5b6102c65a03f1151561043d57600080fd5b50565b600082821115610b1357fe5b509003905600a165627a7a72305820caa1e314deb1420ede15b36e135fb916d6df28f12ffe8fed97a8d776900f8c090029606060405260038054600160a860020a03191633600160a060020a0316179055610b008061002e6000396000f3006060604052600436106100e55763ffffffff7c010000000000000000000000000000000000000000000000000000000060003504166305d2035b81146100ea57806306fdde0314610111578063095ea7b31461019b57806318160ddd146101bd57806323b872dd146101e2578063313ce5671461020a57806340c10f1914610233578063661884631461025557806370a08231146102775780637d64bcb4146102965780638da5cb5b146102a957806395d89b41146102d8578063a9059cbb146102eb578063d73dd6231461030d578063dd62ed3e1461032f578063f2fde38b14610354575b600080fd5b34156100f557600080fd5b6100fd610375565b604051901515815260200160405180910390f35b341561011c57600080fd5b610124610396565b60405160208082528190810183818151815260200191508051906020019080838360005b83811015610160578082015183820152602001610148565b50505050905090810190601f16801561018d5780820380516001836020036101000a031916815260200191505b509250505060405180910390f35b34156101a657600080fd5b6100fd600160a060020a03600435166024356103cd565b34156101c857600080fd5b6101d0610439565b60405190815260200160405180910390f35b34156101ed57600080fd5b6100fd600160a060020a036004358116906024351660443561043f565b341561021557600080fd5b61021d610569565b60405160ff909116815260200160405180910390f35b341561023e57600080fd5b6100fd600160a060020a036004351660243561056e565b341561026057600080fd5b6100fd600160a060020a036004351660243561068c565b341561028257600080fd5b6101d0600160a060020a0360043516610786565b34156102a157600080fd5b6100fd6107a1565b34156102b457600080fd5b6102bc610826565b604051600160a060020a03909116815260200160405180910390f35b34156102e357600080fd5b610124610835565b34156102f657600080fd5b6100fd600160a060020a036004351660243561086c565b341561031857600080fd5b6100fd600160a060020a0360043516602435610942565b341561033a57600080fd5b6101d0600160a060020a03600435811690602435166109e6565b341561035f57600080fd5b610373600160a060020a0360043516610a11565b005b60035474010000000000000000000000000000000000000000900460ff1681565b60408051908101604052600e81527f427974652042657420546f6b656e000000000000000000000000000000000000602082015281565b600160a060020a03338116600081815260026020908152604080832094871680845294909152808220859055909291907f8c5be1e5ebec7d5bd14f71427d1e84f3dd0314c0f7b2291e5b200ac8c7c3b9259085905190815260200160405180910390a350600192915050565b60005481565b600080600160a060020a038416151561045757600080fd5b50600160a060020a0380851660008181526002602090815260408083203390951683529381528382205492825260019052919091205461049d908463ffffffff610aac16565b600160a060020a0380871660009081526001602052604080822093909355908616815220546104d2908463ffffffff610abe16565b600160a060020a0385166000908152600160205260409020556104fb818463ffffffff610aac16565b600160a060020a03808716600081815260026020908152604080832033861684529091529081902093909355908616917fddf252ad1be2c89b69c2b068fc378daa952ba7f163c4a11628f55a4df523b3ef9086905190815260200160405180910390a3506001949350505050565b601281565b60035460009033600160a060020a0390811691161461058c57600080fd5b60035474010000000000000000000000000000000000000000900460ff16156105b457600080fd5b6000546105c7908363ffffffff610abe16565b6000908155600160a060020a0384168152600160205260409020546105f2908363ffffffff610abe16565b600160a060020a0384166000818152600160205260409081902092909255907f0f6798a560793a54c3bcfe86a93cde1e73087d944c0ea20544137d41213968859084905190815260200160405180910390a282600160a060020a031660007fddf252ad1be2c89b69c2b068fc378daa952ba7f163c4a11628f55a4df523b3ef8460405190815260200160405180910390a350600192915050565b600160a060020a033381166000908152600260209081526040808320938616835292905290812054808311156106e957600160a060020a033381166000908152600260209081526040808320938816835292905290812055610720565b6106f9818463ffffffff610aac16565b600160a060020a033381166000908152600260209081526040808320938916835292905220555b600160a060020a0333811660008181526002602090815260408083209489168084529490915290819020547f8c5be1e5ebec7d5bd14f71427d1e84f3dd0314c0f7b2291e5b200ac8c7c3b925915190815260200160405180910390a35060019392505050565b600160a060020a031660009081526001602052604090205490565b60035460009033600160a060020a039081169116146107bf57600080fd5b6003805474ff00000000000000000000000000000000000000001916740100000000000000000000000000000000000000001790557fae5184fba832cb2b1f702aca6117b8d265eaf03ad33eb133f19dde0f5920fa0860405160405180910390a150600190565b600354600160a060020a031681565b60408051908101604052600481527f4242455400000000000000000000000000000000000000000000000000000000602082015281565b6000600160a060020a038316151561088357600080fd5b600160a060020a0333166000908152600160205260409020546108ac908363ffffffff610aac16565b600160a060020a0333811660009081526001602052604080822093909355908516815220546108e1908363ffffffff610abe16565b600160a060020a0380851660008181526001602052604090819020939093559133909116907fddf252ad1be2c89b69c2b068fc378daa952ba7f163c4a11628f55a4df523b3ef9085905190815260200160405180910390a350600192915050565b600160a060020a03338116600090815260026020908152604080832093861683529290529081205461097a908363ffffffff610abe16565b600160a060020a0333811660008181526002602090815260408083209489168084529490915290819020849055919290917f8c5be1e5ebec7d5bd14f71427d1e84f3dd0314c0f7b2291e5b200ac8c7c3b92591905190815260200160405180910390a350600192915050565b600160a060020a03918216600090815260026020908152604080832093909416825291909152205490565b60035433600160a060020a03908116911614610a2c57600080fd5b600160a060020a0381161515610a4157600080fd5b600354600160a060020a0380831691167f8be0079c531659141344cd1fd0a4f28419497f9722a3daafe3b4186f6b6457e060405160405180910390a36003805473ffffffffffffffffffffffffffffffffffffffff1916600160a060020a0392909216919091179055565b600082821115610ab857fe5b50900390565b600082820183811015610acd57fe5b93925050505600a165627a7a72305820e5dc0ada7a20a8e78fb3756ae272dadb4560666d819d89c19bded22de07f5c0b00296060604052341561000f57600080fd5b60405160208061060c8339810160405280805160008054600160a060020a03191633600160a060020a039081169190911790915590925082161515905061005557600080fd5b60028054600160a060020a031916600160a060020a03929092169190911760a060020a60ff021916905561057e8061008e6000396000f3006060604052600436106100985763ffffffff7c010000000000000000000000000000000000000000000000000000000060003504166343d726d6811461009d578063521eb273146100b25780638c52dc41146100e15780638da5cb5b146100f4578063c19d93fb14610107578063cb13cddb1461013e578063f2fde38b1461016f578063f340fa011461018e578063fa89401a146101a2575b600080fd5b34156100a857600080fd5b6100b06101c1565b005b34156100bd57600080fd5b6100c561029c565b604051600160a060020a03909116815260200160405180910390f35b34156100ec57600080fd5b6100b06102ab565b34156100ff57600080fd5b6100c561033c565b341561011257600080fd5b61011a61034b565b6040518082600281111561012a57fe5b60ff16815260200191505060405180910390f35b341561014957600080fd5b61015d600160a060020a036004351661035b565b60405190815260200160405180910390f35b341561017a57600080fd5b6100b0600160a060020a036004351661036d565b6100b0600160a060020a0360043516610408565b34156101ad57600080fd5b6100b0600160a060020a036004351661048c565b60005433600160a060020a039081169116146101dc57600080fd5b60006002805460a060020a900460ff16908111156101f657fe5b1461020057600080fd5b6002805474ff00000000000000000000000000000000000000001916740200000000000000000000000000000000000000001790557f1cdde67b72a90f19919ac732a437ac2f7a10fc128d28c2a6e525d89ce5cd9d3a60405160405180910390a1600254600160a060020a039081169030163180156108fc0290604051600060405180830381858888f19350505050151561029a57600080fd5b565b600254600160a060020a031681565b60005433600160a060020a039081169116146102c657600080fd5b60006002805460a060020a900460ff16908111156102e057fe5b146102ea57600080fd5b6002805474ff0000000000000000000000000000000000000000191660a060020a1790557f599d8e5a83cffb867d051598c4d70e805d59802d8081c1c7d6dffc5b6aca2b8960405160405180910390a1565b600054600160a060020a031681565b60025460a060020a900460ff1681565b60016020526000908152604090205481565b60005433600160a060020a0390811691161461038857600080fd5b600160a060020a038116151561039d57600080fd5b600054600160a060020a0380831691167f8be0079c531659141344cd1fd0a4f28419497f9722a3daafe3b4186f6b6457e060405160405180910390a36000805473ffffffffffffffffffffffffffffffffffffffff1916600160a060020a0392909216919091179055565b60005433600160a060020a0390811691161461042357600080fd5b60006002805460a060020a900460ff169081111561043d57fe5b1461044757600080fd5b600160a060020a038116600090815260016020526040902054610470903463ffffffff61053c16565b600160a060020a03909116600090815260016020526040902055565b600060016002805460a060020a900460ff16908111156104a857fe5b146104b257600080fd5b50600160a060020a038116600081815260016020526040808220805492905590919082156108fc0290839051600060405180830381858888f1935050505015156104fb57600080fd5b81600160a060020a03167fd7dee2702d63ad89917b6a4da9981c90c4d24f8c2bdfd64c604ecae57d8d06518260405190815260200160405180910390a25050565b60008282018381101561054b57fe5b93925050505600a165627a7a723058202918a0753e9e24caec99a883fffbf3cf70d18cc0dc617d782363fcbe0544a1fd0029",
  "source": "pragma solidity ^0.4.11;\n\nimport './ByteBetToken.sol';\nimport 'zeppelin-solidity/contracts/token/MintableToken.sol';\nimport 'zeppelin-solidity/contracts/math/SafeMath.sol';\nimport 'zeppelin-solidity/contracts/crowdsale/RefundVault.sol';\nimport 'zeppelin-solidity/contracts/ownership/Ownable.sol';\n\ncontract ByteBetCrowdsale is Ownable {\n  using SafeMath for uint256;\n\n  // The token being sold\n  MintableToken public token;\n\n  // start and end timestamps where investments are allowed (both inclusive)\n  uint256 public preStartTime;\n  uint256 public preEndTime;\n  uint256 public startTime;\n  uint256 public endTime;\n\n  uint256 public constant preGoal = 150 ether;\n  uint256 public constant preCap = 600 ether;\n  uint256 public constant mainGoal = 3000 ether;\n  uint256 public constant mainCap = 50000 ether;\n\n  // address where funds are collected\n  address public wallet;\n\n  // amount of raised money in wei\n  uint256 public weiRaised;\n\n  // refund vault used to hold funds while crowdsale is running\n  RefundVault public vault;\n\n  bool public isFinalized = false;\n\n  event Finalized();\n\n  /**\n   * event for token purchase logging\n   * @param purchaser who paid for the tokens\n   * @param beneficiary who got the tokens\n   * @param value weis paid for purchase\n   * @param amount amount of tokens purchased\n   */\n  event TokenPurchase(address indexed purchaser, address indexed beneficiary, uint256 value, uint256 amount);\n\n\n  function ByteBetCrowdsale(uint256 _preStartTime, uint256 _preEndTime, uint256 _startTime, uint256 _endTime, address _wallet) public {\n\n    require(_preStartTime >= now);\n    require(_preEndTime >= _preStartTime);\n    require(_startTime >= _preEndTime);\n    require(_endTime >= _startTime);\n    require(_wallet != 0x0);\n\n    token = new ByteBetToken();\n    preStartTime = _preStartTime;\n    preEndTime = _preEndTime;\n    startTime = _startTime;\n    endTime = _endTime;\n    wallet = _wallet;\n    vault = new RefundVault(wallet);\n\n    token.mint(wallet, 100000 ether);\n  }\n\n  // creates the token to be sold.\n  // override this method to have crowdsale of a specific mintable token.\n  function createTokenContract() internal returns (MintableToken) {\n    return new MintableToken();\n  }\n\n\n  // fallback function can be used to buy tokens\n  function () public payable {\n    buyTokens(msg.sender);\n  }\n\n  // low level token purchase function\n  function buyTokens(address beneficiary) public payable {\n    require(beneficiary != 0x0);\n    require(validPurchase());\n\n    uint256 weiAmount = msg.value;\n\n    uint256 rate = getRate();\n \n    // calculate token amount to be created\n    uint256 tokens = weiAmount.mul(rate);\n\n    // update state\n    weiRaised = weiRaised.add(weiAmount);\n\n    token.mint(beneficiary, tokens);\n    TokenPurchase(msg.sender, beneficiary, weiAmount, tokens);\n\n    forwardFunds();\n  }\n\n  function getRate() public constant returns (uint256) {\n    if (preStartTime <= now && now <= preEndTime) {\n      return uint256(130);\n    }\n    if (startTime <= now && now <= startTime + 1 days) {\n      return uint256(125);\n    }\n    if (startTime + 1 days < now && now <= startTime + 1 weeks) {\n      return uint256(115);\n    }\n    if (startTime + 1 weeks < now && now <= endTime ) {\n      return uint256(110);\n    }\n    revert();\n  }\n\n  // @return true if the transaction can buy tokens\n  function validPurchase() internal constant returns (bool) {\n    bool withinPeriod = (preStartTime <= now && now <= preEndTime) || (startTime <= now && now <= endTime);\n    bool nonZeroPurchase = msg.value != 0;\n    bool prePendingOrSuccess = now <= preEndTime || weiRaised > preGoal;\n\n    bool withinCap = false;\n\n    if (preStartTime <= now && now <= preEndTime) {\n      withinCap = weiRaised.add(msg.value) <= preCap;\n    } else {\n      withinCap = weiRaised.add(msg.value) <= mainCap;\n    }\n    \n    return withinPeriod && nonZeroPurchase && withinCap && prePendingOrSuccess;\n  }\n\n  // @return true if crowdsale event has ended\n  function hasEnded() public constant returns (bool) {\n    bool mainCapReached = weiRaised >= mainCap;\n\n    return (now > endTime) || mainCapReached;\n  }\n\n  // We're overriding the fund forwarding from Crowdsale.\n  // In addition to sending the funds, we want to call\n  // the RefundVault deposit function\n  function forwardFunds() internal {\n    vault.deposit.value(msg.value)(msg.sender);\n  }\n\n  // if crowdsale is unsuccessful, investors can claim refunds here\n  function claimRefund() public {\n    require(isFinalized);\n    require(!goalReached());\n\n    vault.refund(msg.sender);\n  }\n\n  // vault finalization task, called when owner calls finalize()\n  function finalization() internal {\n    if (goalReached()) {\n      vault.close();\n      uint256 raised = token.totalSupply().sub(100000 ether);\n      // Sending 50% as team bonus\n      token.mint(wallet, raised);\n    } else {\n      vault.enableRefunds();\n    }\n  }\n\n  function goalReached() public constant returns (bool) {\n    return weiRaised >= mainGoal;\n  }\n\n  function hasPreFailed() public constant returns (bool) {\n    if (preEndTime < now && weiRaised < preGoal) {\n      return true;\n    }\n    return false;\n  }\n\n  function finalize() onlyOwner public {\n    require(!isFinalized);\n    require(hasEnded() || hasPreFailed());\n\n    finalization();\n    Finalized();\n\n    isFinalized = true;\n  }\n\n}\n",
  "sourcePath": "/Users/zoltan/projects/byte.bet/crowdsale/contracts/ByteBetCrowdsale.sol",
  "compiler": {
    "name": "solc",
    "version": "0.4.18+commit.9cf6e910.Emscripten.clang"
  },
  "schemaVersion": "1.0.1",
  "updatedAt": "2017-11-12T15:00:34.001Z"
}